{
    "contractName": "Author",
    "abi": [
        {
            "inputs": [],
            "payable": false,
            "stateMutability": "nonpayable",
            "type": "constructor"
        },
        {
            "constant": true,
            "inputs": [
                {
                    "internalType": "uint256",
                    "name": "",
                    "type": "uint256"
                }
            ],
            "name": "songList",
            "outputs": [
                {
                    "internalType": "bytes32",
                    "name": "",
                    "type": "bytes32"
                }
            ],
            "payable": false,
            "stateMutability": "view",
            "type": "function"
        },
        {
            "constant": false,
            "inputs": [
                {
                    "internalType": "string",
                    "name": "songName",
                    "type": "string"
                },
                {
                    "internalType": "bool",
                    "name": "forSelling",
                    "type": "bool"
                },
                {
                    "internalType": "uint256",
                    "name": "price",
                    "type": "uint256"
                }
            ],
            "name": "claimAuthorship",
            "outputs": [
                {
                    "internalType": "string",
                    "name": "",
                    "type": "string"
                }
            ],
            "payable": false,
            "stateMutability": "nonpayable",
            "type": "function"
        },
        {
            "constant": false,
            "inputs": [],
            "name": "songLister",
            "outputs": [
                {
                    "internalType": "bytes32[]",
                    "name": "",
                    "type": "bytes32[]"
                }
            ],
            "payable": false,
            "stateMutability": "nonpayable",
            "type": "function"
        },
        {
            "constant": true,
            "inputs": [
                {
                    "internalType": "string",
                    "name": "song",
                    "type": "string"
                }
            ],
            "name": "getPrice",
            "outputs": [
                {
                    "internalType": "uint256",
                    "name": "",
                    "type": "uint256"
                }
            ],
            "payable": false,
            "stateMutability": "view",
            "type": "function"
        },
        {
            "constant": false,
            "inputs": [
                {
                    "internalType": "string",
                    "name": "song",
                    "type": "string"
                },
                {
                    "internalType": "bool",
                    "name": "avaliabilitye",
                    "type": "bool"
                }
            ],
            "name": "setAvaliablity",
            "outputs": [],
            "payable": false,
            "stateMutability": "nonpayable",
            "type": "function"
        },
        {
            "constant": false,
            "inputs": [
                {
                    "internalType": "string",
                    "name": "songer",
                    "type": "string"
                }
            ],
            "name": "buyRights",
            "outputs": [],
            "payable": true,
            "stateMutability": "payable",
            "type": "function"
        }
    ],
    "bytecode": "0x608060405234801561001057600080fd5b5033600260006101000a81548173ffffffffffffffffffffffffffffffffffffffff021916908373ffffffffffffffffffffffffffffffffffffffff160217905550610c5d806100616000396000f3fe6080604052600436106100555760003560e01c8063194068fb1461005a5780631b9622d7146101b157806334a6ee17146102855780633a562377146102f1578063524f388914610340578063b405b1061461041c575b600080fd5b34801561006657600080fd5b506101366004803603606081101561007d57600080fd5b810190808035906020019064010000000081111561009a57600080fd5b8201836020820111156100ac57600080fd5b803590602001918460018302840111640100000000831117156100ce57600080fd5b91908080601f016020809104026020016040519081016040528093929190818152602001838380828437600081840152601f19601f820116905080830192505050505050509192919290803515159060200190929190803590602001909291905050506104d7565b6040518080602001828103825283818151815260200191508051906020019080838360005b8381101561017657808201518184015260208101905061015b565b50505050905090810190601f1680156101a35780820380516001836020036101000a031916815260200191505b509250505060405180910390f35b3480156101bd57600080fd5b50610283600480360360408110156101d457600080fd5b81019080803590602001906401000000008111156101f157600080fd5b82018360208201111561020357600080fd5b8035906020019184600183028401116401000000008311171561022557600080fd5b91908080601f016020809104026020016040519081016040528093929190818152602001838380828437600081840152601f19601f82011690508083019250505050505050919291929080351515906020019092919050505061073b565b005b34801561029157600080fd5b5061029a6108b9565b6040518080602001828103825283818151815260200191508051906020019060200280838360005b838110156102dd5780820151818401526020810190506102c2565b505050509050019250505060405180910390f35b3480156102fd57600080fd5b5061032a6004803603602081101561031457600080fd5b8101908080359060200190929190505050610911565b6040518082815260200191505060405180910390f35b34801561034c57600080fd5b506104066004803603602081101561036357600080fd5b810190808035906020019064010000000081111561038057600080fd5b82018360208201111561039257600080fd5b803590602001918460018302840111640100000000831117156103b457600080fd5b91908080601f016020809104026020016040519081016040528093929190818152602001838380828437600081840152601f19601f820116905080830192505050505050509192919290505050610932565b6040518082815260200191505060405180910390f35b6104d56004803603602081101561043257600080fd5b810190808035906020019064010000000081111561044f57600080fd5b82018360208201111561046157600080fd5b8035906020019184600183028401116401000000008311171561048357600080fd5b91908080601f016020809104026020016040519081016040528093929190818152602001838380828437600081840152601f19601f820116905080830192505050505050509192919290505050610a53565b005b60606000846040516020018082805190602001908083835b6020831061051257805182526020820191506020810190506020830392506104ef565b6001836020036101000a038019825116818451168082178552505050505050905001915050604051602081830303815290604052805190602001209050600073ffffffffffffffffffffffffffffffffffffffff1660008083815260200190815260200160002060020160009054906101000a900473ffffffffffffffffffffffffffffffffffffffff1673ffffffffffffffffffffffffffffffffffffffff161480156105c1575060008314155b610616576040517f08c379a000000000000000000000000000000000000000000000000000000000815260040180806020018281038252602c815260200180610bfd602c913960400191505060405180910390fd5b604051806060016040528085151581526020018481526020013373ffffffffffffffffffffffffffffffffffffffff1681525060008083815260200190815260200160002060008201518160000160006101000a81548160ff0219169083151502179055506020820151816001015560408201518160020160006101000a81548173ffffffffffffffffffffffffffffffffffffffff021916908373ffffffffffffffffffffffffffffffffffffffff16021790555090505060018190806001815401808255809150509060018203906000526020600020016000909192909190915055506040518060400160405280600a81526020017f73756363657366756c6c000000000000000000000000000000000000000000008152509150509392505050565b6000826040516020018082805190602001908083835b602083106107745780518252602082019150602081019050602083039250610751565b6001836020036101000a0380198251168184511680821785525050505050509050019150506040516020818303038152906040528051906020012090503373ffffffffffffffffffffffffffffffffffffffff1660008083815260200190815260200160002060020160009054906101000a900473ffffffffffffffffffffffffffffffffffffffff1673ffffffffffffffffffffffffffffffffffffffff1614610887576040517f08c379a00000000000000000000000000000000000000000000000000000000081526004018080602001828103825260158152602001807f596f7520617265206e6f7420616e20617574686f72000000000000000000000081525060200191505060405180910390fd5b8160008083815260200190815260200160002060000160006101000a81548160ff021916908315150217905550505050565b6060600180548060200260200160405190810160405280929190818152602001828054801561090757602002820191906000526020600020905b8154815260200190600101908083116108f3575b5050505050905090565b6001818154811061091e57fe5b906000526020600020016000915090505481565b600080826040516020018082805190602001908083835b6020831061096c5780518252602082019150602081019050602083039250610949565b6001836020036101000a0380198251168184511680821785525050505050509050019150506040516020818303038152906040528051906020012090506000806000838152602001908152602001600020600101541415610a35576040517f08c379a00000000000000000000000000000000000000000000000000000000081526004018080602001828103825260118152602001807f496e76616c696420736f6e67206e616d6500000000000000000000000000000081525060200191505060405180910390fd5b60008082815260200190815260200160002060010154915050919050565b6000816040516020018082805190602001908083835b60208310610a8c5780518252602082019150602081019050602083039250610a69565b6001836020036101000a038019825116818451168082178552505050505050905001915050604051602081830303815290604052805190602001209050600080828152602001908152602001600020600101543410158015610b0d575060008082815260200190815260200160002060000160009054906101000a900460ff165b15610bf3573360008083815260200190815260200160002060020160006101000a81548173ffffffffffffffffffffffffffffffffffffffff021916908373ffffffffffffffffffffffffffffffffffffffff160217905550600080600083815260200190815260200160002060020160009054906101000a900473ffffffffffffffffffffffffffffffffffffffff16905060008190508073ffffffffffffffffffffffffffffffffffffffff166108fc349081150290604051600060405180830381858888f19350505050158015610beb573d6000803e3d6000fd5b505050610bf8565b600080fd5b505056fe536f6e6720616c72656164792068617320616e20617574686f72206f7220496e76616c696420707269636521a265627a7a723158204a6f8af6c65256982760f821513779f8435229ed448f05ae34fd918aa14d1ef064736f6c634300050c0032",
    "source": "pragma solidity ^0.5.11;\n\ncontract Author{\n    \n    struct Creator{\n        \n        bool avaliability;\n        uint price;\n        address owner;\n    }\n    \n    mapping(bytes32=>Creator) songToStruct;\n    bytes32 [] public songList;\n    \n    address administrator;\n    \n    constructor () public{\n        administrator=msg.sender;\n    }\n    \n    \n    function claimAuthorship(string memory songName,bool forSelling, uint price) public returns (string memory){\n        bytes32 song= keccak256(abi.encodePacked(songName));\n        require ((songToStruct[song].owner==0x0000000000000000000000000000000000000000&&price!=0),\"Song already has an author or Invalid price!\");\n        \n        songToStruct[song]=Creator(forSelling,price,msg.sender);\n\n        songList.push(song);\n        \n        return \"succesfull\";\n        \n    }\n    function songLister() public returns(bytes32[] memory ){\n        return songList;\n    }\n  \n        \n    \n    function getPrice(string memory song)public view returns( uint){\n        bytes32 songer= keccak256(abi.encodePacked(song));\n        require(songToStruct[songer].price!=0,\"Invalid song name\");\n      \n          return songToStruct[songer].price;\n     \n    }\n    \n    function setAvaliablity(string memory song,bool avaliabilitye) public{\n        bytes32 songer= keccak256(abi.encodePacked(song));\n        \n        require(songToStruct[songer].owner==msg.sender,\"You are not an author\");\n        \n        songToStruct[songer].avaliability=avaliabilitye;\n    }\n    \n   \n    \n     function buyRights(string memory songer) public payable{\n         bytes32 song= keccak256(abi.encodePacked(songer));\n         \n         if(msg.value>=songToStruct[song].price&&songToStruct[song].avaliability){\n            songToStruct[song].owner=msg.sender;\n          \n            address simpleAddress=songToStruct[song].owner;\n            address payable addressPayable = address(uint160(simpleAddress));\n            addressPayable.transfer(msg.value ); \n             \n         }else{\n             revert();\n         }\n        \n    }\n    \n}",
    "sourcePath": "/Users/user/vuedapp/contracts/Authorship.sol",
    "compiler": {
        "name": "solc",
        "version": "0.5.12+commit.7709ece9.Emscripten.clang"
    },
    "schemaVersion": "3.0.19",
    "updatedAt": "2019-12-09T10:42:06.207Z",
    "devdoc": {
        "methods": {}
    },
    "userdoc": {
        "methods": {}
    }
}