{
  "contractName": "Author",
  "abi": [
    {
      "inputs": [],
      "payable": false,
      "stateMutability": "nonpayable",
      "type": "constructor"
    },
    {
      "constant": true,
      "inputs": [],
      "name": "counter",
      "outputs": [
        {
          "internalType": "int256",
          "name": "",
          "type": "int256"
        }
      ],
      "payable": false,
      "stateMutability": "view",
      "type": "function"
    },
    {
      "constant": true,
      "inputs": [
        {
          "internalType": "uint256",
          "name": "",
          "type": "uint256"
        }
      ],
      "name": "songList",
      "outputs": [
        {
          "internalType": "string",
          "name": "",
          "type": "string"
        }
      ],
      "payable": false,
      "stateMutability": "view",
      "type": "function"
    },
    {
      "constant": false,
      "inputs": [
        {
          "internalType": "string",
          "name": "songName",
          "type": "string"
        },
        {
          "internalType": "bool",
          "name": "forSelling",
          "type": "bool"
        },
        {
          "internalType": "uint256",
          "name": "price",
          "type": "uint256"
        }
      ],
      "name": "claimAuthorship",
      "outputs": [
        {
          "internalType": "string",
          "name": "",
          "type": "string"
        }
      ],
      "payable": false,
      "stateMutability": "nonpayable",
      "type": "function"
    },
    {
      "constant": true,
      "inputs": [
        {
          "internalType": "string",
          "name": "song",
          "type": "string"
        }
      ],
      "name": "getPrice",
      "outputs": [
        {
          "internalType": "uint256",
          "name": "",
          "type": "uint256"
        }
      ],
      "payable": false,
      "stateMutability": "view",
      "type": "function"
    },
    {
      "constant": false,
      "inputs": [
        {
          "internalType": "string",
          "name": "song",
          "type": "string"
        },
        {
          "internalType": "bool",
          "name": "avaliabilitye",
          "type": "bool"
        }
      ],
      "name": "setAvaliablity",
      "outputs": [],
      "payable": false,
      "stateMutability": "nonpayable",
      "type": "function"
    },
    {
      "constant": false,
      "inputs": [
        {
          "internalType": "string",
          "name": "songer",
          "type": "string"
        }
      ],
      "name": "buyRights",
      "outputs": [],
      "payable": true,
      "stateMutability": "payable",
      "type": "function"
    }
  ],
  "bytecode": "0x608060405234801561001057600080fd5b5033600360006101000a81548173ffffffffffffffffffffffffffffffffffffffff021916908373ffffffffffffffffffffffffffffffffffffffff160217905550610d90806100616000396000f3fe6080604052600436106100555760003560e01c8063194068fb1461005a5780631b9622d7146101b15780633a56237714610285578063524f38891461033957806361bc221a14610415578063b405b10614610440575b600080fd5b34801561006657600080fd5b506101366004803603606081101561007d57600080fd5b810190808035906020019064010000000081111561009a57600080fd5b8201836020820111156100ac57600080fd5b803590602001918460018302840111640100000000831117156100ce57600080fd5b91908080601f016020809104026020016040519081016040528093929190818152602001838380828437600081840152601f19601f820116905080830192505050505050509192919290803515159060200190929190803590602001909291905050506104fb565b6040518080602001828103825283818151815260200191508051906020019080838360005b8381101561017657808201518184015260208101905061015b565b50505050905090810190601f1680156101a35780820380516001836020036101000a031916815260200191505b509250505060405180910390f35b3480156101bd57600080fd5b50610283600480360360408110156101d457600080fd5b81019080803590602001906401000000008111156101f157600080fd5b82018360208201111561020357600080fd5b8035906020019184600183028401116401000000008311171561022557600080fd5b91908080601f016020809104026020016040519081016040528093929190818152602001838380828437600081840152601f19601f820116905080830192505050505050509192919290803515159060200190929190505050610783565b005b34801561029157600080fd5b506102be600480360360208110156102a857600080fd5b8101908080359060200190929190505050610901565b6040518080602001828103825283818151815260200191508051906020019080838360005b838110156102fe5780820151818401526020810190506102e3565b50505050905090810190601f16801561032b5780820380516001836020036101000a031916815260200191505b509250505060405180910390f35b34801561034557600080fd5b506103ff6004803603602081101561035c57600080fd5b810190808035906020019064010000000081111561037957600080fd5b82018360208201111561038b57600080fd5b803590602001918460018302840111640100000000831117156103ad57600080fd5b91908080601f016020809104026020016040519081016040528093929190818152602001838380828437600081840152601f19601f8201169050808301925050505050505091929192905050506109ba565b6040518082815260200191505060405180910390f35b34801561042157600080fd5b5061042a610adb565b6040518082815260200191505060405180910390f35b6104f96004803603602081101561045657600080fd5b810190808035906020019064010000000081111561047357600080fd5b82018360208201111561048557600080fd5b803590602001918460018302840111640100000000831117156104a757600080fd5b91908080601f016020809104026020016040519081016040528093929190818152602001838380828437600081840152601f19601f820116905080830192505050505050509192919290505050610ae1565b005b60606000846040516020018082805190602001908083835b602083106105365780518252602082019150602081019050602083039250610513565b6001836020036101000a038019825116818451168082178552505050505050905001915050604051602081830303815290604052805190602001209050600073ffffffffffffffffffffffffffffffffffffffff1660008083815260200190815260200160002060020160009054906101000a900473ffffffffffffffffffffffffffffffffffffffff1673ffffffffffffffffffffffffffffffffffffffff161480156105e5575060008314155b61063a576040517f08c379a000000000000000000000000000000000000000000000000000000000815260040180806020018281038252602c815260200180610d30602c913960400191505060405180910390fd5b604051806060016040528085151581526020018481526020013373ffffffffffffffffffffffffffffffffffffffff1681525060008083815260200190815260200160002060008201518160000160006101000a81548160ff0219169083151502179055506020820151816001015560408201518160020160006101000a81548173ffffffffffffffffffffffffffffffffffffffff021916908373ffffffffffffffffffffffffffffffffffffffff1602179055509050506001859080600181540180825580915050906001820390600052602060002001600090919290919091509080519060200190610730929190610c8a565b505060016002600082825401925050819055506040518060400160405280600a81526020017f73756363657366756c6c000000000000000000000000000000000000000000008152509150509392505050565b6000826040516020018082805190602001908083835b602083106107bc5780518252602082019150602081019050602083039250610799565b6001836020036101000a0380198251168184511680821785525050505050509050019150506040516020818303038152906040528051906020012090503373ffffffffffffffffffffffffffffffffffffffff1660008083815260200190815260200160002060020160009054906101000a900473ffffffffffffffffffffffffffffffffffffffff1673ffffffffffffffffffffffffffffffffffffffff16146108cf576040517f08c379a00000000000000000000000000000000000000000000000000000000081526004018080602001828103825260158152602001807f596f7520617265206e6f7420616e20617574686f72000000000000000000000081525060200191505060405180910390fd5b8160008083815260200190815260200160002060000160006101000a81548160ff021916908315150217905550505050565b6001818154811061090e57fe5b906000526020600020016000915090508054600181600116156101000203166002900480601f0160208091040260200160405190810160405280929190818152602001828054600181600116156101000203166002900480156109b25780601f10610987576101008083540402835291602001916109b2565b820191906000526020600020905b81548152906001019060200180831161099557829003601f168201915b505050505081565b600080826040516020018082805190602001908083835b602083106109f457805182526020820191506020810190506020830392506109d1565b6001836020036101000a0380198251168184511680821785525050505050509050019150506040516020818303038152906040528051906020012090506000806000838152602001908152602001600020600101541415610abd576040517f08c379a00000000000000000000000000000000000000000000000000000000081526004018080602001828103825260118152602001807f496e76616c696420736f6e67206e616d6500000000000000000000000000000081525060200191505060405180910390fd5b60008082815260200190815260200160002060010154915050919050565b60025481565b6000816040516020018082805190602001908083835b60208310610b1a5780518252602082019150602081019050602083039250610af7565b6001836020036101000a038019825116818451168082178552505050505050905001915050604051602081830303815290604052805190602001209050600080828152602001908152602001600020600101543410158015610b9b575060008082815260200190815260200160002060000160009054906101000a900460ff165b15610c81573360008083815260200190815260200160002060020160006101000a81548173ffffffffffffffffffffffffffffffffffffffff021916908373ffffffffffffffffffffffffffffffffffffffff160217905550600080600083815260200190815260200160002060020160009054906101000a900473ffffffffffffffffffffffffffffffffffffffff16905060008190508073ffffffffffffffffffffffffffffffffffffffff166108fc349081150290604051600060405180830381858888f19350505050158015610c79573d6000803e3d6000fd5b505050610c86565b600080fd5b5050565b828054600181600116156101000203166002900490600052602060002090601f016020900481019282601f10610ccb57805160ff1916838001178555610cf9565b82800160010185558215610cf9579182015b82811115610cf8578251825591602001919060010190610cdd565b5b509050610d069190610d0a565b5090565b610d2c91905b80821115610d28576000816000905550600101610d10565b5090565b9056fe536f6e6720616c72656164792068617320616e20617574686f72206f7220496e76616c696420707269636521a265627a7a72315820f8315a221b16fe002bf71fd2f2a036abac16176b9f991a7697e55318d1c09a3a64736f6c634300050c0032",
  "source": "pragma solidity ^0.5.11;\n\ncontract Author{\n    \n    struct Creator{\n        \n        bool avaliability;\n        uint price;\n        address owner;\n    }\n    \n    mapping(bytes32=>Creator) songToStruct;\n    string [] public songList;\n    \n    int public counter;\n    \n    address administrator;\n    \n    constructor () public{\n        administrator=msg.sender;\n    }\n    \n    \n    function claimAuthorship(string memory songName,bool forSelling, uint price) public returns (string memory){\n        bytes32 song= keccak256(abi.encodePacked(songName));\n        require ((songToStruct[song].owner==0x0000000000000000000000000000000000000000&&price!=0),\"Song already has an author or Invalid price!\");\n        \n        songToStruct[song]=Creator(forSelling,price,msg.sender);\n\n        songList.push(songName);\n        \n        counter+=1;\n        \n        return \"succesfull\";\n        \n    }\n    \n  \n        \n    \n    function getPrice(string memory song)public view returns( uint){\n        bytes32 songer= keccak256(abi.encodePacked(song));\n        require(songToStruct[songer].price!=0,\"Invalid song name\");\n      \n          return songToStruct[songer].price;\n     \n    }\n    \n    function setAvaliablity(string memory song,bool avaliabilitye) public{\n        bytes32 songer= keccak256(abi.encodePacked(song));\n        \n        require(songToStruct[songer].owner==msg.sender,\"You are not an author\");\n        \n        songToStruct[songer].avaliability=avaliabilitye;\n    }\n    \n   \n    \n     function buyRights(string memory songer) public payable{\n         bytes32 song= keccak256(abi.encodePacked(songer));\n         \n         if(msg.value>=songToStruct[song].price&&songToStruct[song].avaliability){\n            songToStruct[song].owner=msg.sender;\n          \n            address simpleAddress=songToStruct[song].owner;\n            address payable addressPayable = address(uint160(simpleAddress));\n            addressPayable.transfer(msg.value ); \n             \n         }else{\n             revert();\n         }\n        \n    }\n    \n}",
  "sourcePath": "/Users/user/vuedapp/contracts/Authorship.sol",
  "compiler": {
    "name": "solc",
    "version": "0.5.12+commit.7709ece9.Emscripten.clang"
  },
  "schemaVersion": "3.0.19",
  "updatedAt": "2019-12-09T18:38:35.821Z",
  "devdoc": {
    "methods": {}
  },
  "userdoc": {
    "methods": {}
  }
}